{
  "contractName": "DPG",
  "abi": [
    {
      "constant": true,
      "inputs": [],
      "name": "periodB",
      "outputs": [
        {
          "name": "index",
          "type": "uint256"
        },
        {
          "name": "start",
          "type": "uint256"
        },
        {
          "name": "reusableBottlePurchases",
          "type": "uint256"
        },
        {
          "name": "thrownAwayOneWayBottles",
          "type": "uint256"
        }
      ],
      "payable": false,
      "stateMutability": "view",
      "type": "function"
    },
    {
      "constant": true,
      "inputs": [],
      "name": "agencyFund",
      "outputs": [
        {
          "name": "",
          "type": "uint256"
        }
      ],
      "payable": false,
      "stateMutability": "view",
      "type": "function"
    },
    {
      "constant": true,
      "inputs": [],
      "name": "periodA",
      "outputs": [
        {
          "name": "index",
          "type": "uint256"
        },
        {
          "name": "start",
          "type": "uint256"
        },
        {
          "name": "reusableBottlePurchases",
          "type": "uint256"
        },
        {
          "name": "thrownAwayOneWayBottles",
          "type": "uint256"
        }
      ],
      "payable": false,
      "stateMutability": "view",
      "type": "function"
    },
    {
      "constant": true,
      "inputs": [],
      "name": "currentPeriodName",
      "outputs": [
        {
          "name": "",
          "type": "uint8"
        }
      ],
      "payable": false,
      "stateMutability": "view",
      "type": "function"
    },
    {
      "constant": true,
      "inputs": [],
      "name": "unclaimedRewards",
      "outputs": [
        {
          "name": "",
          "type": "uint256"
        }
      ],
      "payable": false,
      "stateMutability": "view",
      "type": "function"
    },
    {
      "inputs": [],
      "payable": false,
      "stateMutability": "nonpayable",
      "type": "constructor"
    },
    {
      "constant": false,
      "inputs": [
        {
          "name": "bottleCount",
          "type": "uint256"
        }
      ],
      "name": "deposit",
      "outputs": [],
      "payable": true,
      "stateMutability": "payable",
      "type": "function"
    },
    {
      "constant": false,
      "inputs": [
        {
          "name": "bottleCount",
          "type": "uint256"
        }
      ],
      "name": "refund",
      "outputs": [],
      "payable": false,
      "stateMutability": "nonpayable",
      "type": "function"
    },
    {
      "constant": false,
      "inputs": [
        {
          "name": "_address",
          "type": "address"
        },
        {
          "name": "count",
          "type": "uint256"
        }
      ],
      "name": "reportReusableBottlePurchase",
      "outputs": [],
      "payable": false,
      "stateMutability": "nonpayable",
      "type": "function"
    },
    {
      "constant": false,
      "inputs": [
        {
          "name": "count",
          "type": "uint256"
        }
      ],
      "name": "reportThrownAwayBottles",
      "outputs": [],
      "payable": false,
      "stateMutability": "nonpayable",
      "type": "function"
    },
    {
      "constant": false,
      "inputs": [],
      "name": "claimReward",
      "outputs": [],
      "payable": false,
      "stateMutability": "nonpayable",
      "type": "function"
    },
    {
      "constant": false,
      "inputs": [],
      "name": "claimDonation",
      "outputs": [],
      "payable": false,
      "stateMutability": "nonpayable",
      "type": "function"
    },
    {
      "constant": false,
      "inputs": [],
      "name": "registerAsEnvironmentalAgency",
      "outputs": [],
      "payable": false,
      "stateMutability": "nonpayable",
      "type": "function"
    },
    {
      "constant": false,
      "inputs": [],
      "name": "unregisterAsEnvironmentalAgency",
      "outputs": [],
      "payable": false,
      "stateMutability": "nonpayable",
      "type": "function"
    },
    {
      "constant": false,
      "inputs": [
        {
          "name": "_address",
          "type": "address"
        }
      ],
      "name": "addEnvironmentalAgency",
      "outputs": [],
      "payable": false,
      "stateMutability": "nonpayable",
      "type": "function"
    },
    {
      "constant": false,
      "inputs": [
        {
          "name": "_address",
          "type": "address"
        }
      ],
      "name": "removeEnvironmentalAgency",
      "outputs": [],
      "payable": false,
      "stateMutability": "nonpayable",
      "type": "function"
    },
    {
      "constant": false,
      "inputs": [],
      "name": "registerAsGarbageCollector",
      "outputs": [],
      "payable": false,
      "stateMutability": "nonpayable",
      "type": "function"
    },
    {
      "constant": false,
      "inputs": [],
      "name": "unregisterAsGarbageCollector",
      "outputs": [],
      "payable": false,
      "stateMutability": "nonpayable",
      "type": "function"
    },
    {
      "constant": false,
      "inputs": [
        {
          "name": "_address",
          "type": "address"
        }
      ],
      "name": "addGarbageCollector",
      "outputs": [],
      "payable": false,
      "stateMutability": "nonpayable",
      "type": "function"
    },
    {
      "constant": false,
      "inputs": [
        {
          "name": "_address",
          "type": "address"
        }
      ],
      "name": "removeGarbageCollector",
      "outputs": [],
      "payable": false,
      "stateMutability": "nonpayable",
      "type": "function"
    }
  ],
  "bytecode": "0x608060405234801561001057600080fd5b50336000806101000a81548173ffffffffffffffffffffffffffffffffffffffff021916908373ffffffffffffffffffffffffffffffffffffffff16021790555060016006819055506000600760006101000a81548160ff0219169083600181111561007857fe5b0217905550600654600860000181905550426008600101819055506000601281905550611a73806100aa6000396000f300608060405260043610610107576000357c0100000000000000000000000000000000000000000000000000000000900463ffffffff16806310e7f1171461010c5780631a0dfabf1461014c5780631c8e5d611461018f578063278ecde1146101a65780632f4a9f85146101d3578063337f6e6c146101ea57806340f5c64214610215578063427daa9a146102425780634a7b19581461025957806374abc13214610270578063a56c62f6146102b0578063b6b55f25146102e9578063b88a802f14610309578063b8fa2be814610320578063ca8ad2df14610363578063dfb8b1bf146103a6578063e59efefb146103bd578063ec182be91461040a578063f85f91b41461044d575b600080fd5b34801561011857600080fd5b50610121610478565b6040518085815260200184815260200183815260200182815260200194505050505060405180910390f35b34801561015857600080fd5b5061018d600480360381019080803573ffffffffffffffffffffffffffffffffffffffff169060200190929190505050610496565b005b34801561019b57600080fd5b506101a461058a565b005b3480156101b257600080fd5b506101d160048036038101908080359060200190929190505050610626565b005b3480156101df57600080fd5b506101e8610696565b005b3480156101f657600080fd5b506101ff6109b0565b6040518082815260200191505060405180910390f35b34801561022157600080fd5b50610240600480360381019080803590602001909291905050506109b6565b005b34801561024e57600080fd5b50610257610b79565b005b34801561026557600080fd5b5061026e610c2f565b005b34801561027c57600080fd5b50610285610d10565b6040518085815260200184815260200183815260200182815260200194505050505060405180910390f35b3480156102bc57600080fd5b506102c5610d2e565b604051808260018111156102d557fe5b60ff16815260200191505060405180910390f35b61030760048036038101908080359060200190929190505050610d41565b005b34801561031557600080fd5b5061031e610d63565b005b34801561032c57600080fd5b50610361600480360381019080803573ffffffffffffffffffffffffffffffffffffffff1690602001909291905050506110b4565b005b34801561036f57600080fd5b506103a4600480360381019080803573ffffffffffffffffffffffffffffffffffffffff1690602001909291905050506111bb565b005b3480156103b257600080fd5b506103bb6112cc565b005b3480156103c957600080fd5b50610408600480360381019080803573ffffffffffffffffffffffffffffffffffffffff16906020019092919080359060200190929190505050611368565b005b34801561041657600080fd5b5061044b600480360381019080803573ffffffffffffffffffffffffffffffffffffffff16906020019092919050505061157a565b005b34801561045957600080fd5b5061046261166f565b6040518082815260200191505060405180910390f35b600d8060000154908060010154908060020154908060030154905084565b60008060009054906101000a900473ffffffffffffffffffffffffffffffffffffffff1673ffffffffffffffffffffffffffffffffffffffff163373ffffffffffffffffffffffffffffffffffffffff16141561058657600360008373ffffffffffffffffffffffffffffffffffffffff1673ffffffffffffffffffffffffffffffffffffffff16815260200190815260200160002090508060000160009054906101000a900460ff16151561054b57600080fd5b60008160000160006101000a81548160ff02191690831515021790555060008160000160016101000a81548160ff0219169083151502179055505b5050565b6000600360003373ffffffffffffffffffffffffffffffffffffffff1673ffffffffffffffffffffffffffffffffffffffff16815260200190815260200160002090508060000160009054906101000a900460ff161580156105fb57508060000160019054906101000a900460ff16155b151561060657600080fd5b60018160000160016101000a81548160ff02191690831515021790555050565b600061063a82670de0b6b3a7640000611675565b905060008111151561064b57600080fd5b3373ffffffffffffffffffffffffffffffffffffffff166108fc829081150290604051600060405180830381858888f19350505050158015610691573d6000803e3d6000fd5b505050565b60006106a0611a1e565b60006106aa611a1e565b6106b26116ad565b6080604051908101604052908160008201548152602001600182015481526020016002820154815260200160038201548152505090506106f981602001516224ea006116ea565b42101561085357600160065411151561071157600080fd5b600260003373ffffffffffffffffffffffffffffffffffffffff1673ffffffffffffffffffffffffffffffffffffffff16815260200190815260200160002093508360000160009054906101000a900460ff16151561076f57600080fd5b61077c426224ea00611706565b846002015410151561078d57600080fd5b61079561171f565b608060405190810160405290816000820154815260200160018201548152602001600282015481526020016003820154815250509250826000015184600101541015156107e157600080fd5b6107e961175c565b91506000821115156107fa57600080fd5b3373ffffffffffffffffffffffffffffffffffffffff166108fc839081150290604051600060405180830381858888f19350505050158015610840573d6000803e3d6000fd5b50826000015184600101819055506109aa565b61085b61177a565b600160065411151561086c57600080fd5b600260003373ffffffffffffffffffffffffffffffffffffffff1673ffffffffffffffffffffffffffffffffffffffff16815260200190815260200160002093508360000160009054906101000a900460ff1615156108ca57600080fd5b6108d7426224ea00611706565b84600201541015156108e857600080fd5b6108f061171f565b6080604051908101604052908160008201548152602001600182015481526020016002820154815260200160038201548152505092508260000151846001015410151561093c57600080fd5b61094461175c565b915060008211151561095557600080fd5b3373ffffffffffffffffffffffffffffffffffffffff166108fc839081150290604051600060405180830381858888f1935050505015801561099b573d6000803e3d6000fd5b50826000015184600101819055505b50505050565b60135481565b60006109c0611a1e565b6109c86116ad565b608060405190810160405290816000820154815260200160018201548152602001600282015481526020016003820154815250509050610a0f81602001516224ea006116ea565b421015610ac357600360003373ffffffffffffffffffffffffffffffffffffffff1673ffffffffffffffffffffffffffffffffffffffff16815260200190815260200160002060000160009054906101000a900460ff161515610a7157600080fd5b610a796116ad565b9150610a898260030154846116ea565b8260030181905550610ab8601354610ab3610aac86670de0b6b3a7640000611675565b60026118ea565b6116ea565b601381905550610b74565b610acb61177a565b600360003373ffffffffffffffffffffffffffffffffffffffff1673ffffffffffffffffffffffffffffffffffffffff16815260200190815260200160002060000160009054906101000a900460ff161515610b2657600080fd5b610b2e6116ad565b9150610b3e8260030154846116ea565b8260030181905550610b6d601354610b68610b6186670de0b6b3a7640000611675565b60026118ea565b6116ea565b6013819055505b505050565b6000600360003373ffffffffffffffffffffffffffffffffffffffff1673ffffffffffffffffffffffffffffffffffffffff16815260200190815260200160002090508060000160009054906101000a900460ff1680610be757508060000160019054906101000a900460ff165b1515610bf257600080fd5b60008160000160006101000a81548160ff02191690831515021790555060008160000160016101000a81548160ff02191690831515021790555050565b6000600260003373ffffffffffffffffffffffffffffffffffffffff1673ffffffffffffffffffffffffffffffffffffffff16815260200190815260200160002090508060000160009054906101000a900460ff1680610c9d57508060000160019054906101000a900460ff165b1515610ca857600080fd5b8060000160009054906101000a900460ff1615610cd357610ccc6001546001611706565b6001819055505b60008160000160006101000a81548160ff02191690831515021790555060008160000160016101000a81548160ff02191690831515021790555050565b60088060000154908060010154908060020154908060030154905084565b600760009054906101000a900460ff1681565b610d5381670de0b6b3a7640000611675565b34141515610d6057600080fd5b50565b6000806000610d70611a1e565b610d786116ad565b608060405190810160405290816000820154815260200160018201548152602001600282015481526020016003820154815250509050610dbf81602001516224ea006116ea565b421015610f38576001600654111515610dd757600080fd5b610ddf61171f565b93508360040160003373ffffffffffffffffffffffffffffffffffffffff1673ffffffffffffffffffffffffffffffffffffffff1681526020019081526020016000209250836000015483600201541015610e7d57610e788360606040519081016040529081600082015481526020016001820160009054906101000a900460ff16151515158152602001600282015481525050611900565b610f33565b8260010160009054906101000a900460ff16158015610ea0575060008360000154115b1515610eab57600080fd5b610ebd8360000154856000015461197a565b9150600082111515610ece57600080fd5b3373ffffffffffffffffffffffffffffffffffffffff166108fc839081150290604051600060405180830381858888f19350505050158015610f14573d6000803e3d6000fd5b5060018360010160006101000a81548160ff0219169083151502179055505b6110ae565b610f4061177a565b6001600654111515610f5157600080fd5b610f5961171f565b93508360040160003373ffffffffffffffffffffffffffffffffffffffff1673ffffffffffffffffffffffffffffffffffffffff1681526020019081526020016000209250836000015483600201541015610ff757610ff28360606040519081016040529081600082015481526020016001820160009054906101000a900460ff16151515158152602001600282015481525050611900565b6110ad565b8260010160009054906101000a900460ff1615801561101a575060008360000154115b151561102557600080fd5b6110378360000154856000015461197a565b915060008211151561104857600080fd5b3373ffffffffffffffffffffffffffffffffffffffff166108fc839081150290604051600060405180830381858888f1935050505015801561108e573d6000803e3d6000fd5b5060018360010160006101000a81548160ff0219169083151502179055505b5b50505050565b60008060009054906101000a900473ffffffffffffffffffffffffffffffffffffffff1673ffffffffffffffffffffffffffffffffffffffff163373ffffffffffffffffffffffffffffffffffffffff1614156111b757600260008373ffffffffffffffffffffffffffffffffffffffff1673ffffffffffffffffffffffffffffffffffffffff16815260200190815260200160002090508060000160009054906101000a900460ff16151561116957600080fd5b6111766001546001611706565b60018190555060008160000160006101000a81548160ff02191690831515021790555060008160000160016101000a81548160ff0219169083151502179055505b5050565b60008060009054906101000a900473ffffffffffffffffffffffffffffffffffffffff1673ffffffffffffffffffffffffffffffffffffffff163373ffffffffffffffffffffffffffffffffffffffff1614156112c857600260008373ffffffffffffffffffffffffffffffffffffffff1673ffffffffffffffffffffffffffffffffffffffff16815260200190815260200160002090508060000160009054906101000a900460ff1615151561127157600080fd5b61127e60015460016116ea565b60018190555060018160000160006101000a81548160ff02191690831515021790555060008160000160016101000a81548160ff0219169083151502179055504281600201819055505b5050565b6000600260003373ffffffffffffffffffffffffffffffffffffffff1673ffffffffffffffffffffffffffffffffffffffff16815260200190815260200160002090508060000160009054906101000a900460ff1615801561133d57508060000160019054906101000a900460ff16155b151561134857600080fd5b60018160000160016101000a81548160ff02191690831515021790555050565b600080611373611a1e565b61137b6116ad565b6080604051908101604052908160008201548152602001600182015481526020016002820154815260200160038201548152505090506113c281602001516224ea006116ea565b42101561149c576113d16116ad565b92508260040160008673ffffffffffffffffffffffffffffffffffffffff1673ffffffffffffffffffffffffffffffffffffffff168152602001908152602001600020915082600001548260020154101561146b5761146a8260606040519081016040529081600082015481526020016001820160009054906101000a900460ff16151515158152602001600282015481525050611900565b5b6114798260000154856116ea565b826000018190555061148f8360020154856116ea565b8360020181905550611573565b6114a461177a565b6114ac6116ad565b92508260040160008673ffffffffffffffffffffffffffffffffffffffff1673ffffffffffffffffffffffffffffffffffffffff1681526020019081526020016000209150826000015482600201541015611546576115458260606040519081016040529081600082015481526020016001820160009054906101000a900460ff16151515158152602001600282015481525050611900565b5b6115548260000154856116ea565b826000018190555061156a8360020154856116ea565b83600201819055505b5050505050565b60008060009054906101000a900473ffffffffffffffffffffffffffffffffffffffff1673ffffffffffffffffffffffffffffffffffffffff163373ffffffffffffffffffffffffffffffffffffffff16141561166b57600360008373ffffffffffffffffffffffffffffffffffffffff1673ffffffffffffffffffffffffffffffffffffffff16815260200190815260200160002090508060000160009054906101000a900460ff1615151561163057600080fd5b60018160000160006101000a81548160ff02191690831515021790555060008160000160016101000a81548160ff0219169083151502179055505b5050565b60125481565b60008083141561168857600090506116a7565b818302905081838281151561169957fe5b041415156116a357fe5b8090505b92915050565b60008060018111156116bb57fe5b600760009054906101000a900460ff1660018111156116d657fe5b146116e257600d6116e5565b60085b905090565b600081830190508281101515156116fd57fe5b80905092915050565b600082821115151561171457fe5b818303905092915050565b600080600181111561172d57fe5b600760009054906101000a900460ff16600181111561174857fe5b14611754576008611757565b600d5b905090565b600061177561176d600180546118ea565b601354611675565b905090565b60006117846116ad565b905061179781600101546224ea006116ea565b42101515156117a557600080fd5b6004816002015490806001815401808255809150509060018203906000526020600020016000909192909190915055506005816003015490806001815401808255809150509060018203906000526020600020016000909192909190915055506000600181111561181257fe5b600760009054906101000a900460ff16600181111561182d57fe5b141561185c576001600760006101000a81548160ff0219169083600181111561185257fe5b0217905550611881565b6000600760006101000a81548160ff0219169083600181111561187b57fe5b02179055505b61188e60065460016116ea565b600681905550600260065411156118e7576118a76116ad565b90506118e681608060405190810160405290816000820154815260200160018201548152602001600282015481526020016003820154815250506119ef565b5b50565b600081838115156118f757fe5b04905092915050565b6000816040015111801561191657508060200151155b8015611926575060008160000151115b1561194f576119486012546119438360000151846040015161197a565b6116ea565b6012819055505b6000816000018181525050600081602001901515908115158152505060065481604001818152505050565b600080600060048481548110151561198e57fe5b906000526020600020015491506005848154811015156119aa57fe5b906000526020600020015490506119e56119c486846118ea565b6119e06119d984670de0b6b3a7640000611675565b60026118ea565b611675565b9250505092915050565b600654816000018181525050428160200181815250506000816040018181525050600081606001818152505050565b6080604051908101604052806000815260200160008152602001600081526020016000815250905600a165627a7a723058209edeb632991b2390e3540985cf07bbd8f2c29a18834ac68980e7d4bdfc8ccc870029",
  "source": "pragma solidity ^0.4.24;\n\nimport 'openzeppelin-solidity/contracts/math/SafeMath.sol';\n\ncontract DPG {\n\n    // MARK: - Types\n    enum PeriodName { A, B }\n\n    struct Consumer {\n        uint reusableBottlePurchases;\n        bool hasClaimedReward;\n        uint lastResetPeriodIndex;\n    }\n\n    struct Period {\n        uint index;\n        uint start;\n        uint reusableBottlePurchases;\n        uint thrownAwayOneWayBottles;\n        mapping(address => Consumer) consumers;\n    }\n\n    struct EnvironmentalAgency {\n        bool isApproved;\n        bool isApprovalPending;\n        uint lastClaimPeriodIndex;\n        uint joined;\n    }\n\n    struct GarbageCollector {\n        bool isApproved;\n        bool isApprovalPending;\n    }\n\n    // MARK: - Private Properties\n    address owner;\n\n    uint constant periodLength = 4 weeks;\n\n    // TODO: how to calculate deposit value? how to account for fluctuation in ether's value?\n    uint constant depositValue = 1 ether;\n\n    // TODO: floats are not supported\n    //uint constant shareOfAgencies = 0.5;\n\n    uint approvedAgencies;\n    mapping(address => EnvironmentalAgency) agencies;\n\n    mapping(address => GarbageCollector) collectors;\n\n    uint[] reusableBottlePurchasesInPeriod;\n    uint[] thrownAwayOneWayBottlesInPeriod;\n\n    // MARK: - Public Properties\n    uint currentPeriodIndex;\n    PeriodName public currentPeriodName;\n    Period public periodA;\n    Period public periodB;\n\n    uint public unclaimedRewards;\n    uint public agencyFund;\n\n    // MARK: - Events\n    // TODO: define events (may be used as UI update notifications)\n\n    // MARK: - Modifier\n    modifier onlyOwner() {\n        if (msg.sender == owner) _;\n    }\n\n    modifier periodDependent() {\n        Period memory period = getAccountingPeriod();\n\n        if (now < SafeMath.add(period.start, periodLength)) {\n            _;\n        } else {\n            setNextPeriod();\n            _;\n        }\n    }\n\n    // MARK: - Initialization\n    constructor() public {\n        owner = msg.sender;\n        currentPeriodIndex = 1;\n        currentPeriodName = PeriodName.A;\n        periodA.index = currentPeriodIndex;\n        periodA.start = now;\n        unclaimedRewards = 0;\n    }\n\n    // MARK: - Private Methods\n    function setNextPeriod() internal {\n        Period storage period = getAccountingPeriod();\n        require(now >= SafeMath.add(period.start, periodLength));\n\n        reusableBottlePurchasesInPeriod.push(period.reusableBottlePurchases);\n        thrownAwayOneWayBottlesInPeriod.push(period.thrownAwayOneWayBottles);\n\n        if (currentPeriodName == PeriodName.A) {\n            currentPeriodName = PeriodName.B;\n        } else {\n            currentPeriodName = PeriodName.A;\n        }\n\n        currentPeriodIndex = SafeMath.add(currentPeriodIndex, 1);\n\n        if (currentPeriodIndex > 2) {\n            period = getAccountingPeriod();\n            resetPeriod(period);\n        }\n    }\n\n    function getAccountingPeriod() internal view returns (Period storage) {\n        return currentPeriodName == PeriodName.A ? periodA : periodB;\n    }\n\n    function getRewardPeriod() internal view returns (Period storage) {\n        return currentPeriodName == PeriodName.A ? periodB : periodA;\n    }\n\n    function resetPeriod(Period period) internal view {\n        period.index = currentPeriodIndex;\n        period.start = now;\n        period.reusableBottlePurchases = 0;\n        period.thrownAwayOneWayBottles = 0;\n    }\n\n    function resetConsumer(Consumer consumer) internal {\n        if (consumer.lastResetPeriodIndex > 0 && !consumer.hasClaimedReward && consumer.reusableBottlePurchases > 0) {\n            unclaimedRewards = SafeMath.add(unclaimedRewards, getRewardAmount(consumer.reusableBottlePurchases, consumer.lastResetPeriodIndex));\n        }\n\n        consumer.reusableBottlePurchases = 0;\n        consumer.hasClaimedReward = false;\n        consumer.lastResetPeriodIndex = currentPeriodIndex;\n    }\n\n    function getRewardAmount(uint reusableBottlePurchases, uint periodIndex) internal view returns (uint amount) {\n        uint totalReusableBottlePurchases = reusableBottlePurchasesInPeriod[periodIndex];\n        uint thrownAwayOneWayBottles = thrownAwayOneWayBottlesInPeriod[periodIndex];\n\n        //uint consumerShare = reusableBottlePurchases / totalReusableBottlePurchases;\n        amount = SafeMath.mul(SafeMath.div(reusableBottlePurchases, totalReusableBottlePurchases), SafeMath.div(SafeMath.mul(thrownAwayOneWayBottles, depositValue), 2));\n    }\n\n    function getDonationAmount() internal view returns (uint amount) {\n        amount = SafeMath.mul(SafeMath.div(1, approvedAgencies), agencyFund);\n    }\n\n    // MARK: - Public Methods\n    // MARK: Deposit/Refund\n    // leave deposit upon buying newly introduced bottle (i.e. bottle put into circulation through purchase)\n    // TODO: use fallback function instead?\n    function deposit(uint bottleCount) public payable {\n        require(msg.value == SafeMath.mul(bottleCount, depositValue));\n    }\n\n    // refund take-back point up to the amount of bottles it accepted\n    // refund = amount * 0.25€ (for one-way bottles)\n    // TODO: how to limit refunds to take-back points (use signed receipts)? how to guarantee single refund (track used receipts)?\n    function refund(uint bottleCount) public {\n        uint amount = SafeMath.mul(bottleCount, depositValue);\n        require(amount > 0);\n\n        msg.sender.transfer(amount);\n    }\n\n    // MARK: Data Reporting\n    // TODO: how to prove count and purchaser? how to limit reporting to retailers? how to guarantee single report?\n    function reportReusableBottlePurchase(address _address, uint count) public periodDependent {\n        Period storage period = getAccountingPeriod();\n        Consumer storage consumer = period.consumers[_address];\n\n        if (consumer.lastResetPeriodIndex < period.index) {\n            resetConsumer(consumer);\n        }\n\n        consumer.reusableBottlePurchases = SafeMath.add(consumer.reusableBottlePurchases, count);\n        period.reusableBottlePurchases = SafeMath.add(period.reusableBottlePurchases, count);\n    }\n\n    // TODO: how to prove count? how to guarantee single report?\n    function reportThrownAwayBottles(uint count) public periodDependent {\n        require(collectors[msg.sender].isApproved);\n\n        Period storage period = getAccountingPeriod();\n        period.thrownAwayOneWayBottles = SafeMath.add(period.thrownAwayOneWayBottles, count);\n\n        agencyFund = SafeMath.add(agencyFund, SafeMath.div(SafeMath.mul(count, depositValue), 2));\n    }\n\n    // MARK: Reward/Donation\n    function claimReward() public periodDependent {\n        require(currentPeriodIndex > 1);\n\n        Period storage period = getRewardPeriod();\n        Consumer storage consumer = period.consumers[msg.sender];\n\n        if (consumer.lastResetPeriodIndex < period.index) {\n            resetConsumer(consumer);\n        } else {\n            require(!consumer.hasClaimedReward && consumer.reusableBottlePurchases > 0);\n\n            uint amount = getRewardAmount(consumer.reusableBottlePurchases, period.index);\n            require(amount > 0);\n\n            msg.sender.transfer(amount);\n            consumer.hasClaimedReward = true;\n        }\n    }\n\n    function claimDonation() public periodDependent {\n        require(currentPeriodIndex > 1);\n\n        EnvironmentalAgency storage agency = agencies[msg.sender];\n        require(agency.isApproved);\n        require(agency.joined < SafeMath.sub(now, periodLength));\n\n        Period memory period = getRewardPeriod();\n        require(agency.lastClaimPeriodIndex < period.index);\n\n        uint amount = getDonationAmount();\n        require(amount > 0);\n\n        msg.sender.transfer(amount);\n        agency.lastClaimPeriodIndex = period.index;\n    }\n\n    // MARK: Environmental Agencies\n    function registerAsEnvironmentalAgency() public {\n        EnvironmentalAgency storage requester = agencies[msg.sender];\n        require(!requester.isApproved && !requester.isApprovalPending);\n\n        requester.isApprovalPending = true;\n    }\n\n    // TODO: check if deletion from mapping makes sense here (delete agencies[msg.sender])\n    function unregisterAsEnvironmentalAgency() public {\n        EnvironmentalAgency storage agency = agencies[msg.sender];\n        require(agency.isApproved || agency.isApprovalPending);\n\n        if (agency.isApproved) {\n            approvedAgencies = SafeMath.sub(approvedAgencies, 1);\n        }\n\n        agency.isApproved = false;\n        agency.isApprovalPending = false;\n    }\n\n    function addEnvironmentalAgency(address _address) public onlyOwner {\n        EnvironmentalAgency storage agency = agencies[_address];\n        require(!agency.isApproved);\n\n        approvedAgencies = SafeMath.add(approvedAgencies, 1);\n\n        agency.isApproved = true;\n        agency.isApprovalPending = false;\n        agency.joined = now;\n    }\n\n    // TODO: check if deletion makes sense here (delete agencies[_address])\n    function removeEnvironmentalAgency(address _address) public onlyOwner {\n        EnvironmentalAgency storage agency = agencies[_address];\n        require(agency.isApproved);\n\n        approvedAgencies = SafeMath.sub(approvedAgencies, 1);\n\n        agency.isApproved = false;\n        agency.isApprovalPending = false;\n    }\n\n    // MARK: Garbage Collectors\n    function registerAsGarbageCollector() public {\n        GarbageCollector storage requester = collectors[msg.sender];\n        require(!requester.isApproved && !requester.isApprovalPending);\n\n        requester.isApprovalPending = true;\n    }\n\n    // TODO: check if deletion makes sense here (delete collectors[msg.sender])\n    function unregisterAsGarbageCollector() public {\n        GarbageCollector storage collector = collectors[msg.sender];\n        require(collector.isApproved || collector.isApprovalPending);\n\n        collector.isApproved = false;\n        collector.isApprovalPending = false;\n    }\n\n    function addGarbageCollector(address _address) public onlyOwner {\n        GarbageCollector storage collector = collectors[_address];\n        require(!collector.isApproved);\n\n        collector.isApproved = true;\n        collector.isApprovalPending = false;\n    }\n\n    // TODO: check if deletion makes sense here (delete collectors[_address])\n    function removeGarbageCollector(address _address) public onlyOwner {\n        GarbageCollector storage collector = collectors[_address];\n        require(collector.isApproved);\n\n        collector.isApproved = false;\n        collector.isApprovalPending = false;\n    }\n\n}",
  "sourcePath": "/Users/nik/Documents/Developer/Web/DepositRefund/contracts/DPG.sol",
  "compiler": {
    "name": "solc",
    "version": "0.4.24+commit.e67f0147.Emscripten.clang"
  },
  "schemaVersion": "2.0.1",
  "updatedAt": "2018-08-02T09:00:43.652Z"
}