{
  "contractName": "DPG",
  "abi": [
    {
      "constant": true,
      "inputs": [],
      "name": "periodB",
      "outputs": [
        {
          "name": "index",
          "type": "uint256"
        },
        {
          "name": "start",
          "type": "uint256"
        },
        {
          "name": "reusableBottlePurchases",
          "type": "uint256"
        },
        {
          "name": "thrownAwayOneWayBottles",
          "type": "uint256"
        }
      ],
      "payable": false,
      "stateMutability": "view",
      "type": "function"
    },
    {
      "constant": true,
      "inputs": [
        {
          "name": "",
          "type": "uint256"
        }
      ],
      "name": "reusableBottlePurchasesInPeriod",
      "outputs": [
        {
          "name": "",
          "type": "uint256"
        }
      ],
      "payable": false,
      "stateMutability": "view",
      "type": "function"
    },
    {
      "constant": true,
      "inputs": [],
      "name": "agencyFund",
      "outputs": [
        {
          "name": "",
          "type": "uint256"
        }
      ],
      "payable": false,
      "stateMutability": "view",
      "type": "function"
    },
    {
      "constant": true,
      "inputs": [],
      "name": "currentPeriodIndex",
      "outputs": [
        {
          "name": "",
          "type": "uint256"
        }
      ],
      "payable": false,
      "stateMutability": "view",
      "type": "function"
    },
    {
      "constant": true,
      "inputs": [],
      "name": "periodA",
      "outputs": [
        {
          "name": "index",
          "type": "uint256"
        },
        {
          "name": "start",
          "type": "uint256"
        },
        {
          "name": "reusableBottlePurchases",
          "type": "uint256"
        },
        {
          "name": "thrownAwayOneWayBottles",
          "type": "uint256"
        }
      ],
      "payable": false,
      "stateMutability": "view",
      "type": "function"
    },
    {
      "constant": true,
      "inputs": [
        {
          "name": "",
          "type": "uint256"
        }
      ],
      "name": "thrownAwayOneWayBottlesInPeriod",
      "outputs": [
        {
          "name": "",
          "type": "uint256"
        }
      ],
      "payable": false,
      "stateMutability": "view",
      "type": "function"
    },
    {
      "constant": true,
      "inputs": [],
      "name": "DEPOSIT_VALUE",
      "outputs": [
        {
          "name": "",
          "type": "uint256"
        }
      ],
      "payable": false,
      "stateMutability": "view",
      "type": "function"
    },
    {
      "constant": true,
      "inputs": [],
      "name": "currentPeriodName",
      "outputs": [
        {
          "name": "",
          "type": "uint8"
        }
      ],
      "payable": false,
      "stateMutability": "view",
      "type": "function"
    },
    {
      "constant": true,
      "inputs": [],
      "name": "PERIOD_LENGTH",
      "outputs": [
        {
          "name": "",
          "type": "uint256"
        }
      ],
      "payable": false,
      "stateMutability": "view",
      "type": "function"
    },
    {
      "constant": true,
      "inputs": [],
      "name": "unclaimedRewards",
      "outputs": [
        {
          "name": "",
          "type": "uint256"
        }
      ],
      "payable": false,
      "stateMutability": "view",
      "type": "function"
    },
    {
      "inputs": [],
      "payable": false,
      "stateMutability": "nonpayable",
      "type": "constructor"
    },
    {
      "constant": false,
      "inputs": [
        {
          "name": "bottleCount",
          "type": "uint256"
        }
      ],
      "name": "deposit",
      "outputs": [],
      "payable": true,
      "stateMutability": "payable",
      "type": "function"
    },
    {
      "constant": false,
      "inputs": [
        {
          "name": "bottleCount",
          "type": "uint256"
        }
      ],
      "name": "refund",
      "outputs": [],
      "payable": false,
      "stateMutability": "nonpayable",
      "type": "function"
    },
    {
      "constant": false,
      "inputs": [
        {
          "name": "_address",
          "type": "address"
        },
        {
          "name": "count",
          "type": "uint256"
        }
      ],
      "name": "reportReusableBottlePurchase",
      "outputs": [],
      "payable": false,
      "stateMutability": "nonpayable",
      "type": "function"
    },
    {
      "constant": false,
      "inputs": [
        {
          "name": "count",
          "type": "uint256"
        }
      ],
      "name": "reportThrownAwayBottles",
      "outputs": [],
      "payable": false,
      "stateMutability": "nonpayable",
      "type": "function"
    },
    {
      "constant": false,
      "inputs": [],
      "name": "claimReward",
      "outputs": [],
      "payable": false,
      "stateMutability": "nonpayable",
      "type": "function"
    },
    {
      "constant": false,
      "inputs": [],
      "name": "claimDonation",
      "outputs": [],
      "payable": false,
      "stateMutability": "nonpayable",
      "type": "function"
    },
    {
      "constant": false,
      "inputs": [],
      "name": "registerAsEnvironmentalAgency",
      "outputs": [],
      "payable": false,
      "stateMutability": "nonpayable",
      "type": "function"
    },
    {
      "constant": false,
      "inputs": [],
      "name": "unregisterAsEnvironmentalAgency",
      "outputs": [],
      "payable": false,
      "stateMutability": "nonpayable",
      "type": "function"
    },
    {
      "constant": false,
      "inputs": [
        {
          "name": "_address",
          "type": "address"
        }
      ],
      "name": "addEnvironmentalAgency",
      "outputs": [],
      "payable": false,
      "stateMutability": "nonpayable",
      "type": "function"
    },
    {
      "constant": false,
      "inputs": [
        {
          "name": "_address",
          "type": "address"
        }
      ],
      "name": "removeEnvironmentalAgency",
      "outputs": [],
      "payable": false,
      "stateMutability": "nonpayable",
      "type": "function"
    },
    {
      "constant": false,
      "inputs": [],
      "name": "registerAsGarbageCollector",
      "outputs": [],
      "payable": false,
      "stateMutability": "nonpayable",
      "type": "function"
    },
    {
      "constant": false,
      "inputs": [],
      "name": "unregisterAsGarbageCollector",
      "outputs": [],
      "payable": false,
      "stateMutability": "nonpayable",
      "type": "function"
    },
    {
      "constant": false,
      "inputs": [
        {
          "name": "_address",
          "type": "address"
        }
      ],
      "name": "addGarbageCollector",
      "outputs": [],
      "payable": false,
      "stateMutability": "nonpayable",
      "type": "function"
    },
    {
      "constant": false,
      "inputs": [
        {
          "name": "_address",
          "type": "address"
        }
      ],
      "name": "removeGarbageCollector",
      "outputs": [],
      "payable": false,
      "stateMutability": "nonpayable",
      "type": "function"
    }
  ],
  "bytecode": "0x608060405234801561001057600080fd5b50336000806101000a81548173ffffffffffffffffffffffffffffffffffffffff021916908373ffffffffffffffffffffffffffffffffffffffff16021790555060016004819055506000600560006101000a81548160ff0219169083600181111561007857fe5b0217905550600454600660000181905550426006600101819055506000601281905550611c0c806100aa6000396000f30060806040526004361061013e576000357c0100000000000000000000000000000000000000000000000000000000900463ffffffff16806310e7f11714610143578063173b3865146101835780631a0dfabf146101c45780631c8e5d6114610207578063278ecde11461021e5780632f4a9f851461024b578063337f6e6c1461026257806340f5c6421461028d578063427daa9a146102ba5780634a7b1958146102d157806361543801146102e857806374abc13214610313578063769d6b881461035357806384975c4114610394578063a56c62f6146103bf578063b6b55f25146103f8578063b88a802f14610418578063b8fa2be81461042f578063ca8ad2df14610472578063dfb8b1bf146104b5578063e59efefb146104cc578063e7a891b914610519578063ec182be914610544578063f85f91b414610587575b600080fd5b34801561014f57600080fd5b506101586105b2565b6040518085815260200184815260200183815260200182815260200194505050505060405180910390f35b34801561018f57600080fd5b506101ae600480360381019080803590602001909291905050506105d0565b6040518082815260200191505060405180910390f35b3480156101d057600080fd5b50610205600480360381019080803573ffffffffffffffffffffffffffffffffffffffff1690602001909291905050506105f3565b005b34801561021357600080fd5b5061021c6106e7565b005b34801561022a57600080fd5b5061024960048036038101908080359060200190929190505050610783565b005b34801561025757600080fd5b506102606107f3565b005b34801561026e57600080fd5b50610277610b0d565b6040518082815260200191505060405180910390f35b34801561029957600080fd5b506102b860048036038101908080359060200190929190505050610b13565b005b3480156102c657600080fd5b506102cf610cd6565b005b3480156102dd57600080fd5b506102e6610d8c565b005b3480156102f457600080fd5b506102fd610e6d565b6040518082815260200191505060405180910390f35b34801561031f57600080fd5b50610328610e73565b6040518085815260200184815260200183815260200182815260200194505050505060405180910390f35b34801561035f57600080fd5b5061037e60048036038101908080359060200190929190505050610e91565b6040518082815260200191505060405180910390f35b3480156103a057600080fd5b506103a9610eb4565b6040518082815260200191505060405180910390f35b3480156103cb57600080fd5b506103d4610ec0565b604051808260018111156103e457fe5b60ff16815260200191505060405180910390f35b61041660048036038101908080359060200190929190505050610ed3565b005b34801561042457600080fd5b5061042d610ef5565b005b34801561043b57600080fd5b50610470600480360381019080803573ffffffffffffffffffffffffffffffffffffffff169060200190929190505050611246565b005b34801561047e57600080fd5b506104b3600480360381019080803573ffffffffffffffffffffffffffffffffffffffff16906020019092919050505061134d565b005b3480156104c157600080fd5b506104ca61145e565b005b3480156104d857600080fd5b50610517600480360381019080803573ffffffffffffffffffffffffffffffffffffffff169060200190929190803590602001909291905050506114fa565b005b34801561052557600080fd5b5061052e61170c565b6040518082815260200191505060405180910390f35b34801561055057600080fd5b50610585600480360381019080803573ffffffffffffffffffffffffffffffffffffffff169060200190929190505050611713565b005b34801561059357600080fd5b5061059c611808565b6040518082815260200191505060405180910390f35b600b8060000154908060010154908060020154908060030154905084565b6010818154811015156105df57fe5b906000526020600020016000915090505481565b60008060009054906101000a900473ffffffffffffffffffffffffffffffffffffffff1673ffffffffffffffffffffffffffffffffffffffff163373ffffffffffffffffffffffffffffffffffffffff1614156106e357600360008373ffffffffffffffffffffffffffffffffffffffff1673ffffffffffffffffffffffffffffffffffffffff16815260200190815260200160002090508060000160009054906101000a900460ff1615156106a857600080fd5b60008160000160006101000a81548160ff02191690831515021790555060008160000160016101000a81548160ff0219169083151502179055505b5050565b6000600360003373ffffffffffffffffffffffffffffffffffffffff1673ffffffffffffffffffffffffffffffffffffffff16815260200190815260200160002090508060000160009054906101000a900460ff1615801561075857508060000160019054906101000a900460ff16155b151561076357600080fd5b60018160000160016101000a81548160ff02191690831515021790555050565b600061079782670de0b6b3a764000061180e565b90506000811115156107a857600080fd5b3373ffffffffffffffffffffffffffffffffffffffff166108fc829081150290604051600060405180830381858888f193505050501580156107ee573d6000803e3d6000fd5b505050565b60006107fd611bb7565b6000610807611bb7565b61080f611846565b60806040519081016040529081600082015481526020016001820154815260200160028201548152602001600382015481525050905061085681602001516224ea00611883565b4210156109b057600160045411151561086e57600080fd5b600260003373ffffffffffffffffffffffffffffffffffffffff1673ffffffffffffffffffffffffffffffffffffffff16815260200190815260200160002093508360000160009054906101000a900460ff1615156108cc57600080fd5b6108d9426224ea0061189f565b84600201541015156108ea57600080fd5b6108f26118b8565b6080604051908101604052908160008201548152602001600182015481526020016002820154815260200160038201548152505092508260000151846001015410151561093e57600080fd5b6109466118f5565b915060008211151561095757600080fd5b3373ffffffffffffffffffffffffffffffffffffffff166108fc839081150290604051600060405180830381858888f1935050505015801561099d573d6000803e3d6000fd5b5082600001518460010181905550610b07565b6109b8611913565b60016004541115156109c957600080fd5b600260003373ffffffffffffffffffffffffffffffffffffffff1673ffffffffffffffffffffffffffffffffffffffff16815260200190815260200160002093508360000160009054906101000a900460ff161515610a2757600080fd5b610a34426224ea0061189f565b8460020154101515610a4557600080fd5b610a4d6118b8565b60806040519081016040529081600082015481526020016001820154815260200160028201548152602001600382015481525050925082600001518460010154101515610a9957600080fd5b610aa16118f5565b9150600082111515610ab257600080fd5b3373ffffffffffffffffffffffffffffffffffffffff166108fc839081150290604051600060405180830381858888f19350505050158015610af8573d6000803e3d6000fd5b50826000015184600101819055505b50505050565b60135481565b6000610b1d611bb7565b610b25611846565b608060405190810160405290816000820154815260200160018201548152602001600282015481526020016003820154815250509050610b6c81602001516224ea00611883565b421015610c2057600360003373ffffffffffffffffffffffffffffffffffffffff1673ffffffffffffffffffffffffffffffffffffffff16815260200190815260200160002060000160009054906101000a900460ff161515610bce57600080fd5b610bd6611846565b9150610be6826003015484611883565b8260030181905550610c15601354610c10610c0986670de0b6b3a764000061180e565b6002611a83565b611883565b601381905550610cd1565b610c28611913565b600360003373ffffffffffffffffffffffffffffffffffffffff1673ffffffffffffffffffffffffffffffffffffffff16815260200190815260200160002060000160009054906101000a900460ff161515610c8357600080fd5b610c8b611846565b9150610c9b826003015484611883565b8260030181905550610cca601354610cc5610cbe86670de0b6b3a764000061180e565b6002611a83565b611883565b6013819055505b505050565b6000600360003373ffffffffffffffffffffffffffffffffffffffff1673ffffffffffffffffffffffffffffffffffffffff16815260200190815260200160002090508060000160009054906101000a900460ff1680610d4457508060000160019054906101000a900460ff165b1515610d4f57600080fd5b60008160000160006101000a81548160ff02191690831515021790555060008160000160016101000a81548160ff02191690831515021790555050565b6000600260003373ffffffffffffffffffffffffffffffffffffffff1673ffffffffffffffffffffffffffffffffffffffff16815260200190815260200160002090508060000160009054906101000a900460ff1680610dfa57508060000160019054906101000a900460ff165b1515610e0557600080fd5b8060000160009054906101000a900460ff1615610e3057610e29600154600161189f565b6001819055505b60008160000160006101000a81548160ff02191690831515021790555060008160000160016101000a81548160ff02191690831515021790555050565b60045481565b60068060000154908060010154908060020154908060030154905084565b601181815481101515610ea057fe5b906000526020600020016000915090505481565b670de0b6b3a764000081565b600560009054906101000a900460ff1681565b610ee581670de0b6b3a764000061180e565b34141515610ef257600080fd5b50565b6000806000610f02611bb7565b610f0a611846565b608060405190810160405290816000820154815260200160018201548152602001600282015481526020016003820154815250509050610f5181602001516224ea00611883565b4210156110ca576001600454111515610f6957600080fd5b610f716118b8565b93508360040160003373ffffffffffffffffffffffffffffffffffffffff1673ffffffffffffffffffffffffffffffffffffffff168152602001908152602001600020925083600001548360020154101561100f5761100a8360606040519081016040529081600082015481526020016001820160009054906101000a900460ff16151515158152602001600282015481525050611a99565b6110c5565b8260010160009054906101000a900460ff16158015611032575060008360000154115b151561103d57600080fd5b61104f83600001548560000154611b13565b915060008211151561106057600080fd5b3373ffffffffffffffffffffffffffffffffffffffff166108fc839081150290604051600060405180830381858888f193505050501580156110a6573d6000803e3d6000fd5b5060018360010160006101000a81548160ff0219169083151502179055505b611240565b6110d2611913565b60016004541115156110e357600080fd5b6110eb6118b8565b93508360040160003373ffffffffffffffffffffffffffffffffffffffff1673ffffffffffffffffffffffffffffffffffffffff1681526020019081526020016000209250836000015483600201541015611189576111848360606040519081016040529081600082015481526020016001820160009054906101000a900460ff16151515158152602001600282015481525050611a99565b61123f565b8260010160009054906101000a900460ff161580156111ac575060008360000154115b15156111b757600080fd5b6111c983600001548560000154611b13565b91506000821115156111da57600080fd5b3373ffffffffffffffffffffffffffffffffffffffff166108fc839081150290604051600060405180830381858888f19350505050158015611220573d6000803e3d6000fd5b5060018360010160006101000a81548160ff0219169083151502179055505b5b50505050565b60008060009054906101000a900473ffffffffffffffffffffffffffffffffffffffff1673ffffffffffffffffffffffffffffffffffffffff163373ffffffffffffffffffffffffffffffffffffffff16141561134957600260008373ffffffffffffffffffffffffffffffffffffffff1673ffffffffffffffffffffffffffffffffffffffff16815260200190815260200160002090508060000160009054906101000a900460ff1615156112fb57600080fd5b611308600154600161189f565b60018190555060008160000160006101000a81548160ff02191690831515021790555060008160000160016101000a81548160ff0219169083151502179055505b5050565b60008060009054906101000a900473ffffffffffffffffffffffffffffffffffffffff1673ffffffffffffffffffffffffffffffffffffffff163373ffffffffffffffffffffffffffffffffffffffff16141561145a57600260008373ffffffffffffffffffffffffffffffffffffffff1673ffffffffffffffffffffffffffffffffffffffff16815260200190815260200160002090508060000160009054906101000a900460ff1615151561140357600080fd5b6114106001546001611883565b60018190555060018160000160006101000a81548160ff02191690831515021790555060008160000160016101000a81548160ff0219169083151502179055504281600201819055505b5050565b6000600260003373ffffffffffffffffffffffffffffffffffffffff1673ffffffffffffffffffffffffffffffffffffffff16815260200190815260200160002090508060000160009054906101000a900460ff161580156114cf57508060000160019054906101000a900460ff16155b15156114da57600080fd5b60018160000160016101000a81548160ff02191690831515021790555050565b600080611505611bb7565b61150d611846565b60806040519081016040529081600082015481526020016001820154815260200160028201548152602001600382015481525050905061155481602001516224ea00611883565b42101561162e57611563611846565b92508260040160008673ffffffffffffffffffffffffffffffffffffffff1673ffffffffffffffffffffffffffffffffffffffff16815260200190815260200160002091508260000154826002015410156115fd576115fc8260606040519081016040529081600082015481526020016001820160009054906101000a900460ff16151515158152602001600282015481525050611a99565b5b61160b826000015485611883565b8260000181905550611621836002015485611883565b8360020181905550611705565b611636611913565b61163e611846565b92508260040160008673ffffffffffffffffffffffffffffffffffffffff1673ffffffffffffffffffffffffffffffffffffffff16815260200190815260200160002091508260000154826002015410156116d8576116d78260606040519081016040529081600082015481526020016001820160009054906101000a900460ff16151515158152602001600282015481525050611a99565b5b6116e6826000015485611883565b82600001819055506116fc836002015485611883565b83600201819055505b5050505050565b6224ea0081565b60008060009054906101000a900473ffffffffffffffffffffffffffffffffffffffff1673ffffffffffffffffffffffffffffffffffffffff163373ffffffffffffffffffffffffffffffffffffffff16141561180457600360008373ffffffffffffffffffffffffffffffffffffffff1673ffffffffffffffffffffffffffffffffffffffff16815260200190815260200160002090508060000160009054906101000a900460ff161515156117c957600080fd5b60018160000160006101000a81548160ff02191690831515021790555060008160000160016101000a81548160ff0219169083151502179055505b5050565b60125481565b6000808314156118215760009050611840565b818302905081838281151561183257fe5b0414151561183c57fe5b8090505b92915050565b600080600181111561185457fe5b600560009054906101000a900460ff16600181111561186f57fe5b1461187b57600b61187e565b60065b905090565b6000818301905082811015151561189657fe5b80905092915050565b60008282111515156118ad57fe5b818303905092915050565b60008060018111156118c657fe5b600560009054906101000a900460ff1660018111156118e157fe5b146118ed5760066118f0565b600b5b905090565b600061190e61190660018054611a83565b60135461180e565b905090565b600061191d611846565b905061193081600101546224ea00611883565b421015151561193e57600080fd5b601081600201549080600181540180825580915050906001820390600052602060002001600090919290919091505550601181600301549080600181540180825580915050906001820390600052602060002001600090919290919091505550600060018111156119ab57fe5b600560009054906101000a900460ff1660018111156119c657fe5b14156119f5576001600560006101000a81548160ff021916908360018111156119eb57fe5b0217905550611a1a565b6000600560006101000a81548160ff02191690836001811115611a1457fe5b02179055505b611a276004546001611883565b60048190555060026004541115611a8057611a40611846565b9050611a7f8160806040519081016040529081600082015481526020016001820154815260200160028201548152602001600382015481525050611b88565b5b50565b60008183811515611a9057fe5b04905092915050565b60008160400151118015611aaf57508060200151155b8015611abf575060008160000151115b15611ae857611ae1601254611adc83600001518460400151611b13565b611883565b6012819055505b6000816000018181525050600081602001901515908115158152505060045481604001818152505050565b6000806000601084815481101515611b2757fe5b90600052602060002001549150601184815481101515611b4357fe5b90600052602060002001549050611b7e611b5d8684611a83565b611b79611b7284670de0b6b3a764000061180e565b6002611a83565b61180e565b9250505092915050565b600454816000018181525050428160200181815250506000816040018181525050600081606001818152505050565b6080604051908101604052806000815260200160008152602001600081526020016000815250905600a165627a7a723058201629eb0f179e103250562f375c1fc5370394807d139e3e4eb91e64da660e5a990029",
  "source": "pragma solidity 0.4.24;\n\nimport \"node_modules/openzeppelin-solidity/contracts/math/SafeMath.sol\";\n\n\ncontract DPG {\n\n    // MARK: - Types\n    enum PeriodName { A, B }\n\n    struct Consumer {\n        uint reusableBottlePurchases;\n        bool hasClaimedReward;\n        uint lastResetPeriodIndex;\n    }\n\n    struct Period {\n        uint index;\n        uint start;\n        uint reusableBottlePurchases;\n        uint thrownAwayOneWayBottles;\n        mapping(address => Consumer) consumers;\n    }\n\n    struct EnvironmentalAgency {\n        bool isApproved;\n        bool isApprovalPending;\n        uint lastClaimPeriodIndex;\n        uint joined;\n    }\n\n    struct GarbageCollector {\n        bool isApproved;\n        bool isApprovalPending;\n    }\n\n    // MARK: - Private Properties\n    address internal owner;\n\n    uint internal approvedAgencies;\n    mapping(address => EnvironmentalAgency) internal agencies;\n\n    mapping(address => GarbageCollector) internal collectors;\n\n    // MARK: - Public Properties\n    uint public constant PERIOD_LENGTH = 4 weeks;\n\n    // TODO: how to calculate deposit value? how to account for fluctuation in ether's value?\n    uint public constant DEPOSIT_VALUE = 1 ether;\n\n    // TODO: floats are not supported\n    //uint public constant SHARE_OF_AGENCIES = 0.5;\n\n    uint public currentPeriodIndex;\n    PeriodName public currentPeriodName;\n    Period public periodA;\n    Period public periodB;\n\n    uint[] public reusableBottlePurchasesInPeriod;\n    uint[] public thrownAwayOneWayBottlesInPeriod;\n\n    uint public unclaimedRewards;\n    uint public agencyFund;\n\n    // MARK: - Events\n    // TODO: define events (may be used as UI update notifications)\n\n    // MARK: - Modifier\n    modifier onlyOwner() {\n        if (msg.sender == owner) _;\n    }\n\n    modifier periodDependent() {\n        Period memory period = getAccountingPeriod();\n\n        if (now < SafeMath.add(period.start, PERIOD_LENGTH)) {\n            _;\n        } else {\n            setNextPeriod();\n            _;\n        }\n    }\n\n    // MARK: - Initialization\n    constructor() public {\n        owner = msg.sender;\n        currentPeriodIndex = 1;\n        currentPeriodName = PeriodName.A;\n        periodA.index = currentPeriodIndex;\n        periodA.start = now;\n        unclaimedRewards = 0;\n    }\n\n    // MARK: - Public Methods\n    // MARK: Deposit/Refund\n    // leave deposit upon buying newly introduced bottle (i.e. bottle put into circulation through purchase)\n    // TODO: use fallback function instead?\n    function deposit(uint bottleCount) public payable {\n        require(msg.value == SafeMath.mul(bottleCount, DEPOSIT_VALUE));\n    }\n\n    // refund take-back point up to the amount of bottles it accepted\n    // refund = amount * 0.25 (for one-way bottles)\n    // TODO: how to limit refunds to take-back points (use signed receipts)? how to guarantee single refund (track used receipts)?\n    function refund(uint bottleCount) public {\n        uint amount = SafeMath.mul(bottleCount, DEPOSIT_VALUE);\n        require(amount > 0);\n\n        msg.sender.transfer(amount);\n    }\n\n    // MARK: Data Reporting\n    // TODO: how to prove count and purchaser? how to limit reporting to retailers? how to guarantee single report?\n    function reportReusableBottlePurchase(address _address, uint count) public periodDependent {\n        Period storage period = getAccountingPeriod();\n        Consumer storage consumer = period.consumers[_address];\n\n        if (consumer.lastResetPeriodIndex < period.index) {\n            resetConsumer(consumer);\n        }\n\n        consumer.reusableBottlePurchases = SafeMath.add(consumer.reusableBottlePurchases, count);\n        period.reusableBottlePurchases = SafeMath.add(period.reusableBottlePurchases, count);\n    }\n\n    // TODO: how to prove count? how to guarantee single report?\n    function reportThrownAwayBottles(uint count) public periodDependent {\n        require(collectors[msg.sender].isApproved);\n\n        Period storage period = getAccountingPeriod();\n        period.thrownAwayOneWayBottles = SafeMath.add(period.thrownAwayOneWayBottles, count);\n\n        agencyFund = SafeMath.add(agencyFund, SafeMath.div(SafeMath.mul(count, DEPOSIT_VALUE), 2));\n    }\n\n    // MARK: Reward/Donation\n    function claimReward() public periodDependent {\n        require(currentPeriodIndex > 1);\n\n        Period storage period = getRewardPeriod();\n        Consumer storage consumer = period.consumers[msg.sender];\n\n        if (consumer.lastResetPeriodIndex < period.index) {\n            resetConsumer(consumer);\n        } else {\n            require(!consumer.hasClaimedReward && consumer.reusableBottlePurchases > 0);\n\n            uint amount = getRewardAmount(consumer.reusableBottlePurchases, period.index);\n            require(amount > 0);\n\n            msg.sender.transfer(amount);\n            consumer.hasClaimedReward = true;\n        }\n    }\n\n    function claimDonation() public periodDependent {\n        require(currentPeriodIndex > 1);\n\n        EnvironmentalAgency storage agency = agencies[msg.sender];\n        require(agency.isApproved);\n        require(agency.joined < SafeMath.sub(now, PERIOD_LENGTH));\n\n        Period memory period = getRewardPeriod();\n        require(agency.lastClaimPeriodIndex < period.index);\n\n        uint amount = getDonationAmount();\n        require(amount > 0);\n\n        msg.sender.transfer(amount);\n        agency.lastClaimPeriodIndex = period.index;\n    }\n\n    // MARK: Environmental Agencies\n    function registerAsEnvironmentalAgency() public {\n        EnvironmentalAgency storage requester = agencies[msg.sender];\n        require(!requester.isApproved && !requester.isApprovalPending);\n\n        requester.isApprovalPending = true;\n    }\n\n    // TODO: check if deletion from mapping makes sense here (delete agencies[msg.sender])\n    function unregisterAsEnvironmentalAgency() public {\n        EnvironmentalAgency storage agency = agencies[msg.sender];\n        require(agency.isApproved || agency.isApprovalPending);\n\n        if (agency.isApproved) {\n            approvedAgencies = SafeMath.sub(approvedAgencies, 1);\n        }\n\n        agency.isApproved = false;\n        agency.isApprovalPending = false;\n    }\n\n    function addEnvironmentalAgency(address _address) public onlyOwner {\n        EnvironmentalAgency storage agency = agencies[_address];\n        require(!agency.isApproved);\n\n        approvedAgencies = SafeMath.add(approvedAgencies, 1);\n\n        agency.isApproved = true;\n        agency.isApprovalPending = false;\n        agency.joined = now;\n    }\n\n    // TODO: check if deletion makes sense here (delete agencies[_address])\n    function removeEnvironmentalAgency(address _address) public onlyOwner {\n        EnvironmentalAgency storage agency = agencies[_address];\n        require(agency.isApproved);\n\n        approvedAgencies = SafeMath.sub(approvedAgencies, 1);\n\n        agency.isApproved = false;\n        agency.isApprovalPending = false;\n    }\n\n    // MARK: Garbage Collectors\n    function registerAsGarbageCollector() public {\n        GarbageCollector storage requester = collectors[msg.sender];\n        require(!requester.isApproved && !requester.isApprovalPending);\n\n        requester.isApprovalPending = true;\n    }\n\n    // TODO: check if deletion makes sense here (delete collectors[msg.sender])\n    function unregisterAsGarbageCollector() public {\n        GarbageCollector storage collector = collectors[msg.sender];\n        require(collector.isApproved || collector.isApprovalPending);\n\n        collector.isApproved = false;\n        collector.isApprovalPending = false;\n    }\n\n    function addGarbageCollector(address _address) public onlyOwner {\n        GarbageCollector storage collector = collectors[_address];\n        require(!collector.isApproved);\n\n        collector.isApproved = true;\n        collector.isApprovalPending = false;\n    }\n\n    // TODO: check if deletion makes sense here (delete collectors[_address])\n    function removeGarbageCollector(address _address) public onlyOwner {\n        GarbageCollector storage collector = collectors[_address];\n        require(collector.isApproved);\n\n        collector.isApproved = false;\n        collector.isApprovalPending = false;\n    }\n\n    // MARK: - Private Methods\n    function setNextPeriod() internal {\n        Period storage period = getAccountingPeriod();\n        require(now >= SafeMath.add(period.start, PERIOD_LENGTH));\n\n        reusableBottlePurchasesInPeriod.push(period.reusableBottlePurchases);\n        thrownAwayOneWayBottlesInPeriod.push(period.thrownAwayOneWayBottles);\n\n        if (currentPeriodName == PeriodName.A) {\n            currentPeriodName = PeriodName.B;\n        } else {\n            currentPeriodName = PeriodName.A;\n        }\n\n        currentPeriodIndex = SafeMath.add(currentPeriodIndex, 1);\n\n        if (currentPeriodIndex > 2) {\n            period = getAccountingPeriod();\n            resetPeriod(period);\n        }\n    }\n\n    function getAccountingPeriod() internal view returns (Period storage) {\n        return currentPeriodName == PeriodName.A ? periodA : periodB;\n    }\n\n    function getRewardPeriod() internal view returns (Period storage) {\n        return currentPeriodName == PeriodName.A ? periodB : periodA;\n    }\n\n    function resetPeriod(Period period) internal view {\n        period.index = currentPeriodIndex;\n        period.start = now;\n        period.reusableBottlePurchases = 0;\n        period.thrownAwayOneWayBottles = 0;\n    }\n\n    function resetConsumer(Consumer consumer) internal {\n        if (consumer.lastResetPeriodIndex > 0 && !consumer.hasClaimedReward && consumer.reusableBottlePurchases > 0) {\n            unclaimedRewards = SafeMath.add(unclaimedRewards, getRewardAmount(consumer.reusableBottlePurchases, consumer.lastResetPeriodIndex));\n        }\n\n        consumer.reusableBottlePurchases = 0;\n        consumer.hasClaimedReward = false;\n        consumer.lastResetPeriodIndex = currentPeriodIndex;\n    }\n\n    function getRewardAmount(uint reusableBottlePurchases, uint periodIndex) internal view returns (uint amount) {\n        uint totalReusableBottlePurchases = reusableBottlePurchasesInPeriod[periodIndex];\n        uint thrownAwayOneWayBottles = thrownAwayOneWayBottlesInPeriod[periodIndex];\n\n        // userShare * ((thrownAwayOneWayBottles * DEPOSIT_VALUE) / 2)\n        amount = SafeMath.mul(SafeMath.div(reusableBottlePurchases, totalReusableBottlePurchases), SafeMath.div(SafeMath.mul(thrownAwayOneWayBottles, DEPOSIT_VALUE), 2));\n    }\n\n    function getDonationAmount() internal view returns (uint amount) {\n        // agencyShare * agencyFund\n        amount = SafeMath.mul(SafeMath.div(1, approvedAgencies), agencyFund);\n    }\n\n}",
  "sourcePath": "/Users/nik/Documents/Developer/Web/DepositRefund/contracts/DPG.sol",
  "compiler": {
    "name": "solc",
    "version": "0.4.24+commit.e67f0147.Emscripten.clang"
  },
  "schemaVersion": "2.0.1",
  "updatedAt": "2018-08-02T10:54:31.990Z"
}